:100000005DC0000083C0000081C000007FC0000010
:100010007DC000007BC0000079C0000077C00000F8
:1000200075C0000073C0000071C000006FC0000008
:100030006DC000006BC0000069C0000067C0000018
:100040000C94170E63C000000C94410D0C94730DBA
:100050005DC000005BC0000059C0000057C0000038
:1000600055C0000053C0000000000008000201005D
:100070000003040700000000000000000102040863
:100080001020408001020408102001020408102002
:10009000040404040404040402020202020203032E
:1000A0000303030300000000250028002B000000CC
:1000B0000000240027002A00580BA10D11241FBEA8
:1000C000CFEFD8E0DEBFCDBF13E0A0E0B1E0EEECB3
:1000D000F5E202C005900D92A230B107D9F726E0F3
:1000E000A2E0B3E001C01D92A93BB207E1F710E026
:1000F000CCEBD0E004C02297FE010E942B10C83B3D
:10010000D107C9F70E940D0E0C94E51279CFFC01BE
:10011000DB0182818C93838111968C93119784816A
:1001200012968C931297858113968C9313978681E0
:1001300014968C931497878115968C9315978085C8
:1001400016968C931697818517968C9388E090E08D
:100150000895FC01DB014C9150E060E070E04283C7
:1001600053836483758311968C911197582B428326
:1001700053836483758312968C911297682B428304
:1001800053836483758313968C911397782B4283E2
:1001900053836483758314964C91149750E060E008
:1001A00070E0468357836087718715968C91159709
:1001B000582B468357836087718716968C911697C4
:1001C000682B468357836087718717968C91782BAD
:1001D000468357836087718788E090E0089588E0C0
:1001E00091E0089586E191E008956F927F928F9259
:1001F0009F92AF92BF92CF92DF92EF92FF920F93B6
:100200001F93CF93DF93FC01DB018C9190E09383EC
:10021000828311962C911197922B9383828312964D
:100220004D915D916D917C9115975D0186E0A80ED1
:10023000B11C8A019B010A5F1F4F2F4F3F4F650181
:10024000CA1ADB0AE12CF12CC016D106E206F3062D
:1002500040F4E501F9905E01CE010297EC01F882CD
:10026000EECFED01C40FD51F1D82CD0105969583FC
:100270008483ED01C40FD51FCE80DF80E884F9842C
:10028000465F5F4F3D01640E751E8A01222717FDF0
:100290002095322F0C0D1D1D2E1D3F1D43018A1A66
:1002A0009B0AA12CB12C80169106A206B30640F43D
:1002B000E30169913E01CE010297EC016883EECF24
:1002C000C40ED51E9D012C0D3D1DC9010197EC01E9
:1002D0001882415051094A0F5B1F57834683E90139
:1002E000088119812A813B81D4E0CD0ED11C3D01CA
:1002F0006C0C7D1CA601662757FD6095762F400F7C
:10030000511F621F731F43018A1A9B0AA12CB12C33
:1003100084169506A606B70640F4E301F9903E015F
:10032000CE010297EC01F882EECF0C0D1D1D9D0150
:10033000200F311FC9010197EC011882D1E0CD1ABD
:10034000D108CA0EDB1ED186C086D90111968C91C8
:10035000119712964C91129750E060E070E0BA014C
:1003600055274427582B8C91482B13968C91782B2A
:100370004287538764877587C8010496DF91CF91C0
:100380001F910F91FF90EF90DF90CF90BF90AF90B3
:100390009F908F907F906F90089587E391E00895EC
:1003A00080E591E00895AF92BF92CF92DF92EF92F5
:1003B000FF921F93CF93DF939C01FB018081D901B2
:1003C00012968C9381819281A381B4815B01C5E0F7
:1003D000AC0EB11CAC01BD014B5F5F4F6F4F7F4F47
:1003E0006501CE1ADF0AE12CF12CC416D506E6060B
:1003F000F70650F4E501D9905E017E01D2E0ED1AD6
:10040000F108E701D882ECCFEF01C80FD91F1C8299
:100410003496E901FC83EB830596DF91CF911F9120
:10042000FF90EF90DF90CF90BF90AF90089581E75D
:1004300091E0089584E891E0089587E792E00895B7
:1004400085EA91E0089586EC91E008958CED91E0C5
:1004500008958DEF91E0089581E192E00895FC0107
:1004600044815581668177814093360350933703E9
:100470006093380370933903408551856285738595
:1004800040933203509333036093340370933503E6
:10049000428D538D648D758D40932E0350932F03A1
:1004A000609330037093310384859585A685B78565
:1004B00080932A0390932B03A0932C03B0932D03D6
:1004C0000895FC0186A197A108958DEF91E008950C
:1004D00081E192E008958E549D4FFC018081089542
:1004E000AF92BF92CF92DF92EF92FF920F931F9342
:1004F000CF93DF93EC017B018A81DB018C938B81AD
:1005000011968C93EC81FD81DF010D900020E9F7BD
:10051000CD0101976C01CE1ADF0AC601A0E0B0E060
:10052000FB0182839383A483B5836C817D81A601C3
:10053000C70106960E947E11EE81FF81DF010D90BA
:100540000020E9F7CD0101975C01AE1ABF0AF7015F
:10055000EC0DFD1D850120E030E006831783208728
:1005600031879AE0C90ED11C6E817F81A501C70138
:100570008C0D9D1D0E947E11CA0CDB1CE885F9853F
:10058000DF010D900020E9F7CD0101975C01AE1A63
:10059000BF0AF701EC0DFD1D850120E030E000836E
:1005A00011832283338394E0C90ED11C6885798539
:1005B000A501C7018C0D9D1D0E947E11AC0CBD1CB8
:1005C0003A852B859C858D85F701EA0DFB1D3083CF
:1005D000218392838383C5010496DF91CF911F917C
:1005E0000F91FF90EF90DF90CF90BF90AF90089564
:1005F0000F931F93CF93DF93DC01FB0112968C9135
:100600001297808313968D919C911497EC01099019
:100610000020E9F72197C81BD90B8E0120E030E0BC
:10062000018312832383348313966D917C911497F5
:10063000AE01CF0105960E947E11CE010596DF9195
:10064000CF911F910F910895BF92CF92DF92EF92B9
:10065000FF920F931F93CF93DF93EC017B018A816D
:10066000DB018C9311961C92119712961C92129793
:1006700013961C92FB01379640E024E030E05A814B
:10068000C90104964517E0F4AF81B88524E0429F84
:10069000A00DB11D11246C9111965C9111971296C9
:1006A0003C91129713962C91DF0113976C9311963E
:1006B0005C9311963C9320839C014F5F3496DFCF6F
:1006C0004985F701E20FF31F4083118212821382E2
:1006D00020E03985F701E80FF91F04962317B0F4DD
:1006E000AE85BF8534E0239FA00DB11D11246C9110
:1006F00011965C91119712964C91129713963C911A
:1007000060835183428333832F5FE3CF2889208323
:10071000118212821382B12C2889B21698F54B2DC2
:1007200050E0440F551FEB89FC89E40FF51F019041
:10073000F081E02DDF010D900020E9F79D012150AF
:1007400031096901CE1ADF0AF701E80FF91F8601A6
:1007500020E030E000831183228333838C010C5F1F
:100760001F4FEB89FC89E40FF51F60817181A601A1
:10077000C701800F911F0E947E11C601800F911F3B
:10078000B394CACFDF91CF911F910F91FF90EF905B
:10079000DF90CF90BF9008954F925F927F928F929B
:1007A0009F92AF92BF92CF92DF92EF92FF920F9300
:1007B0001F93CF93DF93EC018B01DB01FC908A81C7
:1007C0008F1550F4B4E0FB9EB00111248F81988501
:1007D0000E94BB1098878F83FA82F8013796F12C1C
:1007E00044E050E09E012D5F3F4F8A81BA016C5F6B
:1007F0007F4F6B01F81660F5408150E060E070E0DB
:10080000742F662755274427DF0113978C91482BB7
:1008100011968C91582B11968C91682B4B835C838D
:100820006D837E83A6016F81788584E0F89E600DDC
:10083000711D1124D9018D909D90AD90BC90DB016C
:100840008D929D92AD92BC921397F3943496CDCF36
:10085000F801E40FF51FF08089858F1550F484E0CE
:10086000F89EB00111248E859F850E94BB109F8742
:100870008E879601F98680E0FE013A969985D80127
:10088000A20FB31FA9014C5F5F4F6A01891748F59A
:1008900011969C91119712964C91129750E060E03E
:1008A00070E0BA0155274427592B9C91492B139688
:1008B0009C91792B4A875B876C877D879601AE85F3
:1008C000BF8594E0899FA00DB11D11244081518105
:1008D000628173814D935D936D937C9313978F5FCA
:1008E000CDCFFC9088898F1550F46F2D70E0660F86
:1008F000771F8B899C890E94BB109C8B8B8BC601B8
:10090000F88A712C2E0151E1450E511C288972166E
:1009100008F044C0F801E80FF91FC080D180E280E0
:10092000F3800496F801E80FF91FAC01662757FD24
:100930006095762F4C0D5D1D6E1D7F1D9F01201B48
:10094000310B4901A12CB12C84169506A606B706D9
:1009500038F4B1909F0122503109D901BC92EECFF9
:10096000C80ED91EF801EC0DFD1D319710829C01B7
:1009700021503109200F311F3A8B298BC6013B8949
:100980002C89E32FF22FE70DF11DE70DF11DD201A8
:100990002D913C91318320837394B8CFDF91CF9117
:1009A0001F910F91FF90EF90DF90CF90BF90AF908D
:1009B0009F908F907F905F904F900895AF92BF92DD
:1009C000CF92DF92EF92FF920F931F93CF93DF931B
:1009D00000D000D01F92CDB7DEB78C016B0164361A
:1009E00071053CF0FC01EE54FD4F8081882309F431
:1009F00079C0DA01ED91FC910190F081E02DB80110
:100A00006D5C7E4FCA0109957C015801B4EDAB1AAB
:100A1000BEEFBB0A2FEFF50120832EEF3196208326
:100A20003196808331969083890F809531968083AB
:100A30003196C0823196D08285E090E020E030E0AF
:100A4000A701495F5F4F8417950750F4F801E80F3D
:100A5000F91FE45DFE4F6081260F311D0196F3CF33
:100A6000F8E0EF0EF11C400F511FFA01E45DFE4F5C
:100A70002095208329E1E21621E0F206C8F4650101
:100A8000C6018A199B098E159F0584F4D801129618
:100A90008D919C911397F60161916F01DC01ED91AD
:100AA000FC910190F081E02D0995EACFC7011CC0AF
:100AB0008FEA92E09A83898383E08B8382E392E0DA
:100AC0009D838C83D801ED91FC910190F081E02D04
:100AD000AE014F5F5F4F67E070E0C80109958FEF8F
:100AE0009FEF02C080E090E00F900F900F900F906A
:100AF0000F90DF91CF911F910F91FF90EF90DF90BA
:100B0000CF90BF90AF9008958F929F92AF92BF9277
:100B1000CF92DF92EF92FF920F931F93CF93DF93C9
:100B2000EC01CB01BA018B019C01B7E1359527950A
:100B300017950795BA95D1F7112722273327011565
:100B400011052105310521F000581C4F2F4F3F4F53
:100B5000188219821A826B017C01B5E0CC0CDD1C75
:100B6000EE1CFF1CBA95D1F7CB826B017C0143E0F0
:100B7000F594E794D794C7944A95D1F7CC826B014A
:100B80007C015BE0F594E794D794C7945A95D1F72C
:100B9000CD8268017901E4E0CC0CDD1CEE1CFF1C69
:100BA000EA95D1F74B015C01F3E1B594A7949794D2
:100BB0008794FA95D1F7482D4F704C294E836801E0
:100BC0007901A4E0F594E794D794C794AA95D1F756
:100BD00020E030E0A9010E943E1087FD02C0CF82D4
:100BE00003C08C2D80688F8388E090E0DF91CF91E7
:100BF0001F910F91FF90EF90DF90CF90BF90AF903B
:100C00009F908F900895EF92FF920F931F93CF9331
:100C1000DF938C01EB01FC0142815381648175817A
:100C2000CE0172DF7C01F8014681578160857185B4
:100C3000CE018E0D9F1D68DFE80EF91EF80142857A
:100C4000538564857585CE018E0D9F1D5DDF8E0DEC
:100C50009F1DDF91CF911F910F91FF90EF9008950D
:100C6000EF92FF920F931F93CF93DF938C017B0141
:100C70000296C9DFEC01B701680F791FC8014096E1
:100C8000C2DF8C0F9D1FDF91CF911F910F91FF90BD
:100C9000EF9008950F931F93FC01DB0103810295F0
:100CA0000695077010E020E030E00D931D932D9322
:100CB0003C931397448150E060E070E083E0440F80
:100CC000551F661F771F8A95D1F7402B512B622B3A
:100CD000732B4D935D936D937C931397058110E077
:100CE00020E030E09BE0000F111F221F331F9A9578
:100CF000D1F7042B152B262B372B0D931D932D93FA
:100D00003C93139746814F7050E060E070E083E1C0
:100D1000440F551F661F771F8A95D1F7402B512B23
:100D2000622B732B4D935D936D937C931397868108
:100D300082958F7007810F7710E020E030E094E01B
:100D4000000F111F221F331F9A95D1F7082B011591
:100D5000110521053105A1F0005813402109310981
:100D600097E1000F111F221F331F9A95D1F7042B13
:100D7000152B262B372B0D931D932D933C931397F7
:100D80000781007810E020E030E0302F2227112783
:100D900000274D915D916D917C911397402B512BC4
:100DA000622B732B4D935D936D937C93139788E027
:100DB00090E01F910F910895EF92FF920F931F9370
:100DC000CF93DF938C01EB01BC016E5F7F4FCE01AF
:100DD00061DF7C01B8016A5F7F4FCE018E0D9F1DE0
:100DE00059DFE80EF91EB801665F7F4FCE018E0D08
:100DF0009F1D50DF8E0D9F1DDF91CF911F910F9191
:100E0000FF90EF900895EF92FF920F931F93CF936F
:100E1000DF938C017B010296CFDFEC01B701680FF5
:100E2000791FC8014096C8DF8C0F9D1FDF91CF91BD
:100E30001F910F91FF90EF9008950F931F93CF9301
:100E4000DF93EC018C010A5F1F4FC801DCDFECA1CE
:100E5000FDA1C801DF91CF911F910F910994CF930C
:100E6000DF93C6E0D1E060E088810E94640F60916A
:100E700032037091330380913403909135030E94C3
:100E800042104ED761E08881DF91CF910C94640FBE
:100E900061E080910601DFD740913E0350913F030E
:100EA000609140037091410326E080913C03909152
:100EB0003D0387D51092E3051092E2051092E505F7
:100EC0001092E4051092E9051092E8051092E705EA
:100ED0001092E605E0EBF5E080E090E021913191A1
:100EE000232B81F4FC01EE0FFF1FE055FA4F22E0A7
:100EF00033E0318320838C599F4F90930503809377
:100F00000403089501968931910541F708950F93DF
:100F10001F93CF93DF93CDB7DEB72A970FB6F89420
:100F2000DEBF0FBECDBF8C0187E992E09A83898333
:100F30001B821C821D821E821F82188619861A86B9
:100F4000D801ED91FC910190F081E02DAE014F5F51
:100F50005F4F6AE070E0C8010995B3D6F801608779
:100F60007187828793872A960FB6F894DEBF0FBEEB
:100F7000CDBFDF91CF911F910F9108954F925F9256
:100F80006F927F928F929F92AF92BF92CF92DF9299
:100F9000EF92FF920F931F93CF93DF93CDB7DEB7FE
:100FA0002E970FB6F894DEBF0FBECDBF8C0183EA3B
:100FB00092E09A8389831C821B828AE692E09E8358
:100FC0008D8398878F839A8789871B861C861D86C9
:100FD0001E86580182E3A80EB11C780148E1442E18
:100FE00055245394612C712C6701ACEBCA1AADEFF8
:100FF000DA0AD601ED91FC913097B9F1848195819F
:101000009C838B83808191819E838D838281938158
:10101000DC01ED91FC910480F581E02D0995988724
:101020008F83D601ED91FC9182819381DC01ED915A
:10103000FC910680F781E02D09959A8789874B8678
:101040005C866D867E86F80180819181F601A081A3
:10105000B18118966D917C911997DC01ED91FC910D
:10106000AE014F5F5F4FC8010995B2E0EB0EF11C76
:10107000EA14FB0409F0B8CF780138E1432E552477
:101080005394612C712C6701EAE8CE1AEDEFDE0A69
:10109000F601A081B1811097E1F112968D919C919A
:1010A00013979C838B8314968D919C9115979E83A7
:1010B0008D83ED91FC9111970480F581E02DCD0198
:1010C000099598878F83D6018D919C91DC01ED91D4
:1010D000FC910680F781E02D09959A8789874B86D8
:1010E0005C866D867E86D801ED91FC918080918032
:1010F000F60180819181DC01ED91FC910280F38108
:10110000E02D0995AE014F5F5F4FBC01C801F401AE
:101110000995F2E0EF0EF11CEA14FB0409F0B3CFDD
:10112000F801EE54FD4F81E080832E960FB6F894BF
:10113000DEBF0FBECDBFDF91CF911F910F91FF900A
:10114000EF90DF90CF90BF90AF909F908F907F9067
:101150006F905F904F9008958F929F92AF92BF9241
:10116000CF92DF92EF92FF920F931F93CF93DF9373
:10117000CDB7DEB72A970FB6F894DEBF0FBECDBF4E
:101180008C015B0187E992E09A8389831B821C8230
:101190001D821E821F82188619861A8692D56B01BF
:1011A0007C01F80180859185A285B385C81AD90A8A
:1011B000EA0AFB0AB501CE0101960E94A90058EE89
:1011C000852E53E0952EA12CB12CC701B601A501A7
:1011D0009401FFD669017A019B01AC018B819C814E
:1011E000AD81BE818C0D9D1DAE1DBF1D8B839C836B
:1011F000AD83BE8360E472E48FE090E0C8D6CF8018
:10120000D884E984FA84C60ED71EE81EF91ECF8260
:10121000D886E986FA8655D5CB80DC80ED80FE80C5
:10122000F1E0CF1AD108E108F108A5019401D1D667
:1012300049015A019B01AC01C818D908EA08FB080A
:10124000F801C486D586E686F786CF80D884E984FF
:10125000FA84F6E3DF1AF5E6EF0AF4ECFF0A60E43D
:1012600072E48FE090E093D6C61AD70AE80AF90A2A
:10127000F801C08AD18AE28AF38AB801605F7F4FA1
:10128000C8010C9657D61DD5F801E954FD4F60836F
:101290007183828393832A960FB6F894DEBF0FBEC4
:1012A000CDBFDF91CF911F910F91FF90EF90DF9015
:1012B000CF90BF90AF909F908F9008952F923F92C4
:1012C0004F925F926F927F928F929F92AF92BF9256
:1012D000CF92DF92EF92FF920F931F93CF93DF9302
:1012E000CDB7DEB760970FB6F894DEBF0FBECDBFA7
:1012F0004C01E7D46B017C01940129543D4F3E839E
:101300002D83F90180819181A281B381A70196018A
:10131000281B390B4A0B5B0BDA01C901893F9A4242
:10132000A105B10510F035971082A40148555D4F15
:10133000588B4F87DA018D919C91892B79F0F401BC
:10134000E554FD4F80819181A281B3818C159D056B
:10135000AE05BF0518F4FA01118210823401F0E5E0
:101360006F1AFDEF7F0A940124553D4F3A8329837C
:10137000A4014E545D4F58874F832C5E3F4F3C87EE
:101380002B87435F5F4F5E874D87840106551D4F56
:101390001601270154E1250E311C411C511C54013A
:1013A00084E1A80EB11C940122553D4F3C832B8350
:1013B000A40145545D4F5A874987D40112968D91F7
:1013C0009C911397DC01ED91FC910680F781E02D53
:1013D00009959C0197FD25C1F30180819181820FC0
:1013E000931F91838083AF85B8894D915C9147307D
:1013F0005105E1F4EB81FC8180819181AC014F5F6B
:101400005F4F51834083F401E80FF91F248BD8010B
:101410008D919C91119701978D939C93892B09F045
:10142000BECF28E030E0EF85F88984C04115510532
:1014300011F52F3F310569F481E090E0AF85B8895F
:101440008D939C93E985FA85208231824282538272
:10145000B4CF37D46C197D098E099F0966307105A8
:101460008105910508F49BCFF401EE54FD4F1082E5
:101470008EEF9FEFFBC04130510591F42E3F3105B7
:1014800019F482E090E02EC0EF85F8891182108275
:10149000AF81B8858C91811182CFC40138DD8DCFA9
:1014A0004230510589F4F80131832083AB81BC813E
:1014B0001D921C9283E090E0EF85F88991838083F0
:1014C000D3012D933C9379CF4330510581F4322FD2
:1014D0002227F80180819181820F931F918380835D
:1014E00084E090E0AF85B8898D939C9366CF4430BB
:1014F000510591F460E071E059D58F3F910539F4C1
:1015000085E090E0EF85F8899183808356CFAF85A1
:10151000B8891D921C9251CF4530510571F4E98173
:10152000FA813183208386E090E0AF85B8898D937E
:101530009C93F3013183208340CF46305105D1F491
:10154000322F2227A981BA818D919C911197820F08
:10155000931F8D939C9327E030E0EF85F8893183CA
:101560002083D8018D919C91892B09F018CF28E018
:1015700030E0E0CF4830510509F011CFAF85B88990
:101580001D921C9260E071E011D58F3F910509F02A
:1015900006CFA981BA81ED91FC913097A1F4C401E5
:1015A000B6DCC401EBDCF401ED54FD4FC082D18206
:1015B000E282F382ED81FE81C082D182E282F382F7
:1015C0008FEF9FEF53C0EA30F10521F4B501C4015C
:1015D000C3DDF3CEE630F10549F4B5018B859C857A
:1015E000DBD881E0AD85BE858C93E7CEEB30F1058D
:1015F00021F4EF81F8851082E0CEE952FF4FEE0F23
:10160000FF1FE80DF91D80819181009709F4C7CE75
:10161000DC01ED91FC910190F081E02DB50109957F
:10162000CCCEF401EE54FD4F80818823E9F0840193
:101630000D541D4FF80180819181A281B381A701D2
:101640009601281B390B4A0B5B0BDA01C901853C5B
:101650009940A105B10540F0C40159DCD801CD92F3
:10166000DD92ED92FC92139780E090E060960FB6C9
:10167000F894DEBF0FBECDBFDF91CF911F910F91C8
:10168000FF90EF90DF90CF90BF90AF909F908F90A2
:101690007F906F905F904F903F902F900895DFDB89
:1016A0008AE393E00BDE61E070E080E090E038C315
:1016B0008FED92E090933B0380933A038FE096E0A6
:1016C00090933D0380933C0380E091EEA0E0B0E076
:1016D00080933E0390933F03A0934003B093410354
:1016E0001092EC058BEB92E09093FB058093FA054A
:1016F0001092FC0510920206109201061092030649
:10170000109209061092080610920A0610920E0610
:1017100010920D06EEE7F5E01192119285E0E03BA4
:10172000F807D1F7E0EBF5E01192119285E0E23E87
:10173000F807D1F7EEE4F3E0119284E0E636F8071B
:10174000D9F7E6E6F4E0119285E0EE37F807D9F72D
:1017500089EE92E0909303038093020383ED92E07D
:10176000909309038093080387EC92E090930B0316
:1017700080930A0310920C0310920D0310920E0333
:1017800010920F0310921003109211031092120383
:101790001092130310921403109215031092160363
:1017A00010921703909319038093180310921A0351
:1017B00010921B0310921C0310921D0310921E0323
:1017C00010921F0310922003109221031092220303
:1017D0001092230310922403109225038FE292E0CB
:1017E000909327038093260381E090E09093290350
:1017F000809328038BE692E090930703809306037F
:101800000895FC01818D228D90E0805C9F4F821BAA
:1018100091098F7399270895FC01918D828D9817F6
:1018200031F0828DE80FF11D858D90E008958FEFE6
:101830009FEF0895FC01918D828D981761F0828D44
:10184000DF01A80FB11D5D968C91928D9F5F9F73F4
:10185000928F90E008958FEF9FEF089588E99DE0C3
:10186000892B41F080E090E0892B21F061D181113A
:101870000C9400000895FC01848DDF01A80FB11DB8
:10188000A35ABF4F2C91848D90E001968F739927B6
:10189000848FA689B7892C93A089B1898C918064A3
:1018A0008C93938D848D981306C00288F389E02D64
:1018B00080818F7D80830895CF93DF93EC01888DA5
:1018C0008823C1F0EA89FB89808185FD05C0A8894C
:1018D000B9898C9186FD0EC00FB607FCF5CF8081CB
:1018E00085FFF2CFA889B9898C9185FFEDCFCE0114
:1018F000C2DFE8CFDF91CF910895CF92DF92FF92C0
:101900000F931F93CF93DF931F92CDB7DEB76C0178
:1019100081E0D60158968C9358975B969C915B9783
:101920005C968C915C97981307C05096ED91FC9152
:101930005197808185FD2DC0F601038D10E00F5F6A
:101940001F4F0F731127F02EF601848DF81210C06F
:101950000FB607FCF9CFD6015096ED91FC91519747
:10196000808185FFF1CFC601698385DF6981ECCF76
:10197000838DE80FF11DE35AFF4F6083D6015B961C
:101980000C935B975296ED91FC9153978081806206
:101990000CC0D6015696ED91FC91579760835096F6
:1019A000ED91FC91519780818064808381E090E08B
:1019B0000F90DF91CF911F910F91FF90DF90CF900B
:1019C0000895BF92CF92DF92EF92FF92CF93DF9371
:1019D000EC016A017B01B22EE889F98982E08083FB
:1019E000411581EE58076105710599F060E079E0D5
:1019F0008DE390E0A7019601ECD221503109410915
:101A000051095695479537952795211580E1380757
:101A100090F0E889F989108260E874E88EE190E03E
:101A2000A7019601D6D22150310941095109569595
:101A3000479537952795EC85FD853083EE85FF85A5
:101A40002083188EEC89FD89B082EA89FB89808128
:101A500080618083EA89FB89808188608083EA894C
:101A6000FB89808180688083EA89FB8980818F7D02
:101A70008083DF91CF91FF90EF90DF90CF90BF9068
:101A800008951F920F920FB60F9211242F938F93E8
:101A90009F93EF93FF93E0911F06F09120068081C2
:101AA000E0912506F091260682FD12C0908180917A
:101AB00028068F5F8F7320912906821751F0E091DD
:101AC0002806F0E0E15FF94F958F8093280601C06A
:101AD0008081FF91EF919F918F912F910F900FBE79
:101AE0000F901F9018951F920F920FB60F9211240E
:101AF0002F933F934F935F936F937F938F939F9316
:101B0000AF93BF93EF93FF938FE096E0B4DEFF9126
:101B1000EF91BF91AF919F918F917F916F915F9165
:101B20004F913F912F910F900FBE0F901F901895DE
:101B30008FE096E066DE21E0892B09F420E0822F19
:101B40000895109212061092110688EE93E0A0E01C
:101B5000B0E08093130690931406A0931506B093FB
:101B6000160685EF92E09093100680930F0685ECA1
:101B700090E090931C0680931B0684EC90E0909379
:101B80001E0680931D0680EC90E0909320068093C3
:101B90001F0681EC90E0909322068093210682EC50
:101BA00090E0909324068093230686EC90E0909337
:101BB0002606809325061092280610922906109278
:101BC0002A0610922B060895CF92DF92EF92FF9291
:101BD0000F931F93CF93DF937C016A01EB0100E029
:101BE00010E00C151D0571F06991D701ED91FC9184
:101BF0000190F081E02DC7010995892B19F00F5F45
:101C00001F4FEFCFC801DF91CF911F910F91FF9030
:101C1000EF90DF90CF9008950895B9D0FDDF38D9C7
:101C2000CEE2DCE03CDD2097E9F318DEFBCF1F922B
:101C30000F920FB60F9211242F933F938F939F9380
:101C4000AF93BF938091AD069091AE06A091AF0681
:101C5000B091B0063091AC0623E0230F2D3720F46D
:101C60000196A11DB11D05C026E8230F0296A11DF6
:101C7000B11D2093AC068093AD069093AE06A09361
:101C8000AF06B093B0068091B1069091B206A091D4
:101C9000B306B091B4060196A11DB11D8093B106A3
:101CA0009093B206A093B306B093B406BF91AF91E0
:101CB0009F918F913F912F910F900FBE0F901F908A
:101CC00018952FB7F8946091AD067091AE0680918B
:101CD000AF069091B0062FBF08953FB7F89480915A
:101CE000B1069091B206A091B306B091B40626B5A4
:101CF000A89B05C02F3F19F00196A11DB11D3FBF44
:101D00006627782F892F9A2F620F711D811D911DD3
:101D100042E0660F771F881F991F4A95D1F70895F3
:101D20008F929F92AF92BF92CF92DF92EF92FF92EB
:101D30006B017C01D2DF4B015C01C114D104E104D1
:101D4000F104E1F0F6D0C9DF681979098A099B0925
:101D5000683E73408105910580F321E0C21AD108E5
:101D6000E108F10888EE880E83E0981EA11CB11CE2
:101D7000C114D104E104F10431F7DFCFFF90EF90FB
:101D8000DF90CF90BF90AF909F908F900895789400
:101D900084B5826084BD84B5816084BD85B5826070
:101DA00085BD85B5816085BDEEE6F0E0808181600E
:101DB0008083E1E8F0E0108280818260808380810E
:101DC00081608083E0E8F0E0808181608083E1EBE6
:101DD000F0E0808184608083E0EBF0E080818160CE
:101DE0008083EAE7F0E08081846080838081826084
:101DF000808380818160808380818068808310926D
:101E0000C1000895833081F028F4813099F0823048
:101E1000A1F008958730A9F08830B9F08430D1F46A
:101E2000809180008F7D03C0809180008F778093A8
:101E30008000089584B58F7702C084B58F7D84BDFE
:101E400008958091B0008F7703C08091B0008F7D9E
:101E50008093B0000895CF93DF9390E0FC01E458A5
:101E6000FF4F2491FC01E057FF4F8491882349F1F3
:101E700090E0880F991FFC01E255FF4FA591B491A6
:101E80008C559F4FFC01C591D4919FB7611108C03B
:101E9000F8948C91209582238C93888182230AC0A8
:101EA000623051F4F8948C91322F309583238C93C7
:101EB0008881822B888304C0F8948C91822B8C9328
:101EC0009FBFDF91CF9108950F931F93CF93DF931F
:101ED0001F92CDB7DEB7282F30E0F901E859FF4F48
:101EE0008491F901E458FF4F1491F901E057FF4F35
:101EF00004910023C1F0882319F0698383DF69818D
:101F0000E02FF0E0EE0FFF1FEC55FF4FA591B491CD
:101F10009FB7F8948C91611103C01095812301C083
:101F2000812B8C939FBF0F90DF91CF911F910F91C9
:101F300008950895CF92DF92EF92FF920F931F932F
:101F4000CF93DF938C01EB01688179818A819B813A
:101F500020E03AEC4AE95BE33CD0F801C080D18054
:101F6000E280F380C20ED31EE41EF51EC082D18231
:101F7000E282F382688379838A839B83DF91CF91A6
:101F80001F910F91FF90EF90DF90CF900895DB01AC
:101F90008F939F9340D0BF91AF91A29F800D911DD1
:101FA000A39F900DB29F900D1124089597FB072ECB
:101FB00016F4009406D077FD08D037D007FC05D082
:101FC0003EF4909581959F4F0895709561957F4F50
:101FD0000895A1E21A2EAA1BBB1BFD010DC0AA1F6A
:101FE000BB1FEE1FFF1FA217B307E407F50720F082
:101FF000A21BB30BE40BF50B661F771F881F991FFD
:102000001A9469F760957095809590959B01AC0145
:10201000BD01CF01089523D0A59F900DB49F900DD1
:10202000A49F800D911D11240895AA1BBB1B51E193
:1020300007C0AA1FBB1FA617B70710F0A61BB70B38
:10204000881F991F5A95A9F780959095BC01CD01DD
:102050000895EE0FFF1F0590F491E02D0994A29FC3
:10206000B001B39FC001A39F700D811D1124911D6C
:10207000B29F700D811D1124911D08952FD008F479
:1020800081E0089557D088F09F5790F0B92F992795
:10209000B751A0F0D1F0660F771F881F991F1AF073
:1020A000BA95C9F712C0B13081F05ED0B1E00895A1
:1020B0005BC0672F782F8827B85F39F0B93FCCF322
:1020C000869577956795B395D9F73EF49095809569
:1020D000709561957F4F8F4F9F4F0895990F00081E
:1020E000550FAA0BE0E8FEEF16161706E807F907EA
:1020F000C0F012161306E407F50798F0621B730B85
:10210000840B950B39F40A2661F0232B242B252B05
:1021100021F408950A2609F4A140A6958FEF811DA8
:10212000811D089557FD9058440F551F59F05F3F8A
:1021300071F04795880F97FB991F61F09F3F79F0E9
:1021400087950895121613061406551FF2CF46956B
:10215000F1DF08C0161617061806991FF1CF8695ED
:102160007105610508940895E894BB2766277727D1
:10217000CB0197F90895A0E0B0E0E0ECF0E1F2C106
:10218000EC01CB01209711F4C2D0B4C0FE01E60FE0
:10219000F71F9E0122503109E217F30708F4A8C087
:1021A000D9010D911C91119706171707B0F0053052
:1021B000110508F49BC0A801445051094617570760
:1021C00008F494C002501109061B170B01931193D8
:1021D0006D937C93CF0133D189C05B01A01AB10A02
:1021E0004E01800E911EA091B706B091B806612CE9
:1021F000712C60E070E0109709F449C0A815B9058A
:10220000C9F5ED90FC901197670142E0C40ED11C16
:10221000CA14DB0478F147018A189B08640142E084
:10222000C40ED11C1296BC9012971396AC91B5E0D7
:10223000CB16D10440F0B282A38391828082D9016F
:102240008D939C9309C00E5F1F4F0E0D1F1DF9014A
:1022500011830083EB2DFA2F6115710531F0DB013D
:102260001396FC93EE93129741C0F093B806E09357
:10227000B7063CC06D917C9111976616770608F4FD
:102280003B01BD0112960D90BC91A02DB4CF609181
:10229000B5067091B60668157905E9F468167906F1
:1022A000D0F440910001509101014115510541F4D4
:1022B0004DB75EB76091040170910501461B570B45
:1022C000E417F507A8F4F093B606E093B506F90114
:1022D000918380830BC01BD07C01009749F0A8013B
:1022E000BE010CD0CE01ABD0C70104C0CE0102C0EC
:1022F00080E090E0CDB7DEB7EEE050C1FB01DC013D
:1023000002C001900D9241505040D8F70895CF93EC
:10231000DF938230910510F482E090E0E091B706FF
:10232000F091B80620E030E0A0E0B0E0309739F15D
:102330004081518148175907B8F04817590771F47F
:1023400082819381109729F013969C938E93129714
:102350002CC09093B8068093B70627C0211531058D
:1023600031F04217530718F0A901DB0101C0EF015A
:102370009A01BD01DF010280F381E02DD7CF211545
:102380003105F9F0281B390B2430310580F48A819E
:102390009B816115710521F0FB019383828304C049
:1023A0009093B8068093B706FE01329644C0FE01B2
:1023B000E20FF31F819391932250310939832883CF
:1023C0003AC02091B5063091B606232B41F42091F6
:1023D0000201309103013093B6062093B506209197
:1023E0000001309101012115310541F42DB73EB7AF
:1023F0004091040150910501241B350BE091B50675
:10240000F091B606E217F307A0F42E1B3F0B281736
:10241000390778F0AC014E5F5F4F2417350748F05D
:102420004E0F5F1F5093B6064093B506819391936C
:1024300002C0E0E0F0E0CF01DF91CF910895CF93AB
:10244000DF93009709F487C0FC0132971382128250
:10245000C091B706D091B806209781F420813181D0
:10246000280F391F8091B5069091B6068217930701
:1024700079F5F093B606E093B5066DC0DE0120E075
:1024800030E0AE17BF0750F412964D915C91139750
:102490009D014115510509F1DA01F3CFB383A28300
:1024A00040815181840F951F8A179B0771F48D918C
:1024B0009C911197840F951F0296918380831296A9
:1024C0008D919C911397938382832115310529F473
:1024D000F093B806E093B7063EC0D9011396FC937B
:1024E000EE9312974D915D91A40FB51FEA17FB076C
:1024F00079F480819181840F951F0296D9011196FC
:102500009C938E938281938113969C938E931297C2
:10251000E0E0F0E08A819B81009719F0FE01EC0178
:10252000F9CFCE01029628813981820F931F209125
:10253000B5063091B6062817390769F4309729F4A3
:102540001092B8061092B70602C013821282D0937E
:10255000B606C093B506DF91CF9108952F923F92B2
:102560004F925F926F927F928F929F92AF92BF92A3
:10257000CF92DF92EF92FF920F931F93CF93DF934F
:10258000CDB7DEB7CA1BDB0B0FB6F894DEBF0FBEAC
:10259000CDBF09942A88398848885F846E847D84F9
:1025A0008C849B84AA84B984C884DF80EE80FD80FB
:1025B0000C811B81AA81B981CE0FD11D0FB6F89471
:0E25C000DEBF0FBECDBFED010895F894FFCF32
:1025CE000000B90680000D007374645F6D7367734D
:1025DE002F54696D65006364373136366337346363
:1025EE003535326333313166626363326665356128
:1025FE0037626332383900726F7373657269616C5A
:10260E005F6D7367732F546F706963496E666F00E9
:10261E003061643531663838666334343839326641
:10262E00386331303638343037373634363030352B
:10263E0000726F7373657269616C5F6D7367732F70
:10264E004C6F670031316162643733316332353933
:10265E003333323631636436313833626431326447
:10266E00363239350039663065393862646136354F
:10267E0039383139383664646635336166613761AD
:10268E0034306534390067656F6D657472795F6DCE
:10269E007367732F566563746F7233003461383409
:1026AE0032623635663431333038346463326231F7
:1026BE003066623438346561376631370067656F6E
:1026CE006D657472795F6D7367732F547769737468
:1026DE0000396631393566383831323436666466DB
:1026EE006132373938643164336565626361383419
:1026FE0061004D6573736167652066726F6D20644E
:10270E0065766963652064726F707065643A206DDA
:10271E00657373616765206C61726765722074689A
:10272E00616E206275666665722E00626173655F0A
:10273E006D6F74696F6E00726F7373657269616C21
:10274E005F6D7367732F5265717565737450617227
:10275E00616D00000000008700A900EF00F200008C
:10276E000000007002F500CD01D00100000000F85D
:10277E0002D30117021A02000000002403CC031D2D
:10278E00022002000000000306DC062302260200DF
:10279E000000003006030729022C0200000000DEB4
:1027AE00045E096B02000000001D076102650268ED
:1027BE0002000000007D0CE40D010C1A0C0C0C5CE8
:0227CE000C00FD
:00000001FF
